:020000040800F2
:10000000003000209D1600087515000877150008BF
:10001000791500087B1500087D1500080000000018
:100020000000000000000000000000007F15000834
:1000300081150008000000008315000885150008E0
:10004000ED160008ED160008ED160008ED16000884
:10005000ED160008ED160008ED160008ED16000874
:10006000ED160008ED160008ED160008ED16000864
:10007000ED160008ED160008ED160008ED16000854
:10008000ED160008ED160008ED160008ED16000844
:10009000ED160008ED160008ED160008ED16000834
:1000A000ED160008ED160008ED160008ED16000824
:1000B000ED160008ED16000800000000ED1600081F
:1000C000ED1600080000000000000000ED1600081A
:1000D00000000000ED160008ED160008ED160008FF
:1000E000ED160008ED1600080000000000000000FA
:1000F0000000000000000000000000000000000000
:1001000000000000000000000000000000000000EF
:100110000000000000000000ED160008ED160008C9
:1001200000000000000000000000000000000000CF
:1001300000000000000000000000000000000000BF
:10014000ED160008ED16000800000000ED1600088E
:10015000ED160008ED160008ED160008ED16000873
:10016000ED160008ED160008000000000000000079
:10017000000000000000000000000000000000007F
:0801800000000000ED1600086C
:1001880010B5054C237833B9044B13B10448AFF3C9
:1001980000800123237010BD04000020000000002F
:1001A8004817000808B5034B1BB103490348AFF3D0
:1001B800008008BD00000000080000204817000863
:1001C80081F0004102E000BF83F0004330B54FEA00
:1001D80041044FEA430594EA050F08BF90EA020F6D
:1001E8001FBF54EA000C55EA020C7FEA645C7FEA00
:1001F800655C00F0E2804FEA5454D4EB5555B8BF23
:100208006D420CDD2C4480EA020281EA030382EA93
:10021800000083EA010180EA020281EA0303362D25
:1002280088BF30BD11F0004F4FEA01314FF4801CF8
:100238004CEA113102D0404261EB410113F0004F0A
:100248004FEA03334CEA133302D0524263EB4303C1
:1002580094EA050F00F0A780A4F10104D5F1200E5F
:100268000DDB02FA0EFC22FA05F2801841F10001BA
:1002780003FA0EF2801843FA05F359410EE0A5F18E
:1002880020050EF1200E012A03FA0EFC28BF4CF0BF
:10029800020C43FA05F3C01851EBE37101F0004575
:1002A80007D54FF0000EDCF1000C7EEB00006EEB82
:1002B8000101B1F5801F1BD3B1F5001F0CD349080C
:1002C8005FEA30004FEA3C0C04F101044FEA445263
:1002D80012F5800F80F09A80BCF1004F08BF5FEAEA
:1002E800500C50F1000041EB045141EA050130BDCA
:1002F8005FEA4C0C404141EB010111F4801FA4F16D
:100308000104E9D191F0000F04BF01460020B1FAC1
:1003180081F308BF2033A3F10B03B3F120020CDAF9
:100328000C3208DD02F1140CC2F10C0201FA0CF0D7
:1003380021FA02F10CE002F11402D8BFC2F1200C3C
:1003480001FA02F120FA0CFCDCBF41EA0C019040F2
:10035800E41AA2BF01EB0451294330BD6FEA04043B
:100368001F3C1CDA0C340EDC04F11404C4F1200226
:1003780020FA04F001FA02F340EA030021FA04F338
:1003880045EA030130BDC4F10C04C4F1200220FA8F
:1003980002F001FA04F340EA0300294630BD21FACD
:1003A80004F0294630BD94F0000F83F4801306BF93
:1003B80081F480110134013D4EE77FEA645C18BF87
:1003C8007FEA655C29D094EA050F08BF90EA020F1E
:1003D80005D054EA000C04BF1946104630BD91EA16
:1003E800030F1EBF0021002030BD5FEA545C05D119
:1003F8004000494128BF41F0004130BD14F5800458
:100408003CBF01F5801130BD01F0004545F0FE41CB
:1004180041F470014FF0000030BD7FEA645C1ABF00
:10042800194610467FEA655C1CBF0B46024650EA37
:10043800013406BF52EA033591EA030F41F4002163
:1004480030BD00BF90F0000F04BF0021704730B5E9
:100458004FF4806404F132044FF000054FF00001BE
:1004680050E700BF90F0000F04BF0021704730B57F
:100478004FF4806404F1320410F0004548BF404254
:100488004FF000013EE700BF42004FEAE2014FEAA9
:1004980031014FEA02701FBF12F07F4393F07F4F84
:1004A80081F06051704792F0000F14BF93F07F4FB6
:1004B800704730B54FF4607401F0004521F00041F9
:1004C80020E700BF50EA010208BF704730B54FF07F
:1004D80000050AE050EA010208BF704730B511F084
:1004E800004502D5404261EB41014FF4806404F1BC
:1004F80032045FEA915C3FF4DCAE4FF003025FEA3E
:10050800DC0C18BF03325FEADC0C18BF033202EBC5
:10051800DC02C2F1200300FA03FC20FA02F001FA1F
:1005280003FE40EA0E0021FA02F11444C1E600BFBE
:1005380070B54FF0FF0C4CF4E06C1CEA11541DBF71
:100548001CEA135594EA0C0F95EA0C0F00F0DEF83C
:100558002C4481EA030621EA4C5123EA4C5350EA21
:10056800013518BF52EA033541F4801143F4801372
:1005780038D0A0FB02CE4FF00005E1FB02E506F003
:100588000042E0FB03E54FF00006E1FB03569CF058
:10059800000F18BF4EF0010EA4F1FF04B6F5007F5E
:1005A80064F5407404D25FEA4E0E6D4146EB0606D0
:1005B80042EAC62141EA55514FEAC52040EA5E5059
:1005C8004FEACE2EB4F1FD0C88BFBCF5E06F1ED803
:1005D800BEF1004F08BF5FEA500E50F1000041EB3A
:1005E800045170BD06F0004646EA010140EA0200E7
:1005F80081EA0301B4EB5C04C2BFD4EB0C0541EA09
:10060800045170BD41F480114FF0000E013C00F31D
:10061800AB8014F1360FDEBF002001F0004170BD41
:10062800C4F10004203C35DA0C341BDC04F114045A
:10063800C4F1200500FA05F320FA04F001FA05F2E6
:1006480040EA020001F0004221F0004110EBD370B3
:1006580021FA04F642EB06015EEA430E08BF20EADF
:10066800D37070BDC4F10C04C4F1200500FA04F382
:1006780020FA05F001FA04F240EA020001F0004114
:1006880010EBD37041F100015EEA430E08BF20EA87
:10069800D37070BDC4F1200500FA05F24EEA020ECF
:1006A80020FA04F301FA05F243EA020321FA04F0FE
:1006B80001F0004121FA04F220EA020000EBD370B5
:1006C8005EEA430E08BF20EAD37070BD94F0000FB5
:1006D8000FD101F00046400041EB010111F4801FE9
:1006E80008BF013CF7D041EA060195F0000F18BF9A
:1006F800704703F00046520043EB030313F4801FD6
:1007080008BF013DF7D043EA0603704794EA0C0F8F
:100718000CEA135518BF95EA0C0F0CD050EA4106A5
:1007280018BF52EA4306D1D181EA030101F0004122
:100738004FF0000070BD50EA410606BF104619464A
:1007480052EA430619D094EA0C0F02D150EA013656
:1007580013D195EA0C0F05D152EA03361CBF104697
:1007680019460AD181EA030101F0004141F0FE4136
:1007780041F470014FF0000070BD41F0FE4141F4BA
:10078800780170BD70B54FF0FF0C4CF4E06C1CEABA
:1007980011541DBF1CEA135594EA0C0F95EA0C0F6F
:1007A80000F0A7F8A4EB050481EA030E52EA03352A
:1007B8004FEA013100F088804FEA03334FF080554B
:1007C80045EA131343EA12634FEA022245EA111578
:1007D80045EA10654FEA00260EF000419D4208BF29
:1007E800964244F1FD0404F5407402D25B084FEAD6
:1007F8003202B61A65EB03055B084FEA32024FF482
:1008080080104FF4002CB6EB020E75EB030E22BFDE
:10081800B61A754640EA0C005B084FEA3202B6EB9E
:10082800020E75EB030E22BFB61A754640EA5C004D
:100838005B084FEA3202B6EB020E75EB030E22BFDD
:10084800B61A754640EA9C005B084FEA3202B6EBDE
:10085800020E75EB030E22BFB61A754640EADC009D
:1008680055EA060E18D04FEA051545EA16754FEAFF
:1008780006164FEAC30343EA52734FEAC2025FEA1D
:100888001C1CC0D111F4801F0BD141EA00014FF0AC
:1008980000004FF0004CB6E711F4801F04BF01437D
:1008A8000020B4F1FD0C88BFBCF5E06F3FF6AFAE99
:1008B800B5EB030C04BFB6EB020C5FEA500C50F129
:1008C800000041EB045170BD0EF0004E4EEA1131AC
:1008D80014EB5C04C2BFD4EB0C0541EA045170BDB3
:1008E80041F480114FF0000E013C90E645EA060EF7
:1008F8008DE60CEA135594EA0C0F08BF95EA0C0F25
:100908003FF43BAF94EA0C0F0AD150EA01347FF46C
:1009180034AF95EA0C0F7FF425AF104619462CE743
:1009280095EA0C0F06D152EA03353FF4FDAE1046A6
:10093800194622E750EA410618BF52EA43067FF4F7
:10094800C5AE50EA41047FF40DAF52EA43057FF487
:10095800EBAE12E74FEA4102B2F1E04324BFB3F530
:10096800001CDCF1FE5C0DD901F0004C4FEAC0021E
:100978004CEA5070B2F1004F40EB830008BF20F002
:100988000100704711F0804F21D113F13872BCBFBC
:1009980001F00040704741F480114FEA5252C2F111
:1009A8001802C2F1200C10FA0CF320FA02F018BF5A
:1009B80040F001004FEAC1234FEAD32303FA0CFCAD
:1009C80040EA0C0023FA02F34FEA4303CCE77FEA3C
:1009D800625307D150EA01331EBF4FF0FE4040F486
:1009E8004000704701F0004040F0FE4040F4000035
:1009F800704700BF0146007A0B6810B500287FD009
:100A0800002B45D04A7A012A28D003D3022A2ED0B7
:100A1800012008E0444A506820EA0300506010684A
:100A28001843106000208A7A6AB1022A23D0032A68
:100A38002AD0012A2ED13C4AD46824EA0304D4607F
:100A48009468234393604B68002B6BD04A7A012A41
:100A58003CD021D3022A42D0012025E0324A106836
:100A680020EA03001060506818435060DAE72E4A05
:100A780010681843F6E72C4A946824EA0304946043
:100A8800D4682343D360DEE7274A94681C43F6E71B
:100A98001846D8E70120D6E7234A546A24EA030413
:100AA8005462146A1C4314628A7A002A3AD0022AD1
:100AB80019D0032A20D0012A33D11B4AD16A21EA4E
:100AC8000301D162916A0B43936210BD164A146AFE
:100AD80024EA03041462546A1C435462E4E7124A89
:100AE800146A1C43F6E7104A916A21EA03019162ED
:100AF800D16A0B43D36210BD0B4A916A1943F6E7DA
:100B0800094A1468DB431C4014605468234053604E
:100B18004B68146ADB431C401462516A0B405362F1
:100B280010BD012010BD00BF000401402DE9F043B5
:100B38000A6892FAA2F44FF0010EB4FA84F403257D
:100B48000F2732FA04F30DD14B68013B012B06D86D
:100B58004368C96823EA02034A431A4342600020F3
:100B6800BDE8F0830EFA04F3134069D0D1F804808D
:100B7800D0F8009093FAA3FCBCFA8CFC93FAA3F685
:100B8800B6FA86F64FEA4C0C05FA0CFC760029EA10
:100B98000C0C08FA06F64CEA0606066008F1FF3661
:100BA800012E16D8866893FAA3FCBCFA8CFC93FA3B
:100BB800A3F94FEA4C0C05FA0CFC26EA0C0CB9FA1E
:100BC80089F98E684FEA490906FA09F64CEA0606D9
:100BD8008660C66893FAA3FCBCFA8CFC93FAA3F966
:100BE8004FEA4C0C05FA0CFC26EA0C0CB9FA89F908
:100BF8000E694FEA490906FA09F64CEA0606B8F101
:100C0800020FC6601CD193FAA3F6B6FA86F6072E31
:100C1800D1F814C016DCD0F8208093FAA3F6B6FAFF
:100C280086F693FAA3F3B3FA83F3B60007FA06F647
:100C38009B0028EA06060CFA03FC46EA0C06066244
:100C480001347EE7D0F824801B0A93FAA3F6B6FA9B
:100C580086F693FAA3F3B3FA83F3B60007FA06F617
:100C68009B0028EA06060CFA03F333434362E7E7DE
:100C7800036823F0010310B503600268CC688B6831
:100C880022F4F85243EA0423134303604B680361D8
:100C980003680C6943F001030360836823F400438D
:100CA800836082688B6922F4FF62234322F0070283
:100CB800134383601CB1836843F400438360036873
:100CC8000A6823F440131343036043684A6923F412
:100CD800004313434360002010BD0000034B044A47
:100CE8005B68C3F30313D35CD8407047001002401D
:100CF80060170008034B044A5B68C3F30223D35C04
:100D0800D84070470010024070170008034B044A8F
:100D18005B68C3F3C223D35CD8407047001002401D
:100D2800701700080D4B0E495A680E4802F48032BD
:100D3800002A08BF0846D96A5B684FF4701292FA15
:100D4800A2F2B2FA82F203F47013D340023301F034
:100D58000F010131B0FBF1F0584370470010024019
:100D680000093D0000127A00044B5B6803F00C0395
:100D7800082B01D1FFF7D6BF014870470010024089
:100D880000127A0010B50446FFF7EEFF2060FFF767
:100D9800A5FF6060FFF7AEFFA0606068FFF7B6FFD1
:100DA800E06010BD08B518BB124A136B03F00303CB
:100DB800022B0ED0032B05D0012B11D1BDE8084022
:100DC800FFF7D2BF136813F0020F0B4B18BF18467A
:100DD80008BD136A13F0020F18BF4FF4004008BD96
:100DE800FFF7C2FFFFF77AFFBDE80840FFF782BFB1
:100DF800002008BD0010024000127A0030B50446F9
:100E0800006810F0010085B00D4602D0012005B041
:100E180030BDEA686B68216813432A691343AA69DD
:100E280013431F4A0A40134323606368AA6823F4E4
:100E3800405313436360A3686A6923F44073134300
:100E4800A360184B9C4219D1FFF7ACFF0028DDD0F6
:100E58002A68002ADAD0AB69B3F5004F4FEA52038B
:100E680018D103EB4003B3FBF2F34FF6F0721A40CC
:100E7800C3F342031343E3600020C8E70A4B9C42D4
:100E880004D16846FFF77EFF0298DFE7074B9C42D4
:100E9800BCD1F6E70344B3FBF2F39BB2EBE700BF28
:100EA800F369FFEF0038014000440040004800406B
:100EB8004FF47A73B0FBF3F0034B0022013858600B
:100EC8009A6005221A60704710E000E0084B82B073
:100ED8001B680193019B064B411C18BF013008B9E0
:100EE80002B070471A68D20348BF00F1FF30F6E736
:100EF80010E000E0014B1860704700BF00000020C0
:100F080030B545680C4C2C4044F0024444F400547D
:100F1800214341EA0341416083699B0604D5C369C3
:100F280043F02003C36130BD8369990744BF12F8B9
:100F3800013B8362F0E700BF0080007C2DE9FF41A0
:100F480001259846FA238DF80C308DF80D20009570
:100F580003AA02230C46FFF7D3FFFB238DF80C30BE
:100F6800002703AA2146009502238DF80D70FFF78C
:100F7800C7FFFC238DF80C3003AA214600950223F5
:100F88008DF80D80FFF7BCFFFD238DF80C30009520
:100F9800022303AA21468DF80D70FFF7B1FF04B0B4
:100FA800BDE8F0812DE9FF479400E4B201279A4695
:100FB800A31D8DF80C301546009703AA02230E4690
:100FC800BDF830808DF80DA0FFF79AFFE31D8DF86E
:100FD8000C3003AA31464FEA1A2A00970223023539
:100FE8008DF80DA0AD00FFF78BFF03AA31460097DF
:100FF80002238DF80D808DF80C500934FFF780FF1F
:101008004FEA18280097022303AA31468DF80C40AE
:101018008DF80D80FFF774FF04B0BDE8F08700007D
:1010280030B545680C4C2C4044F0024444F410544C
:10103800214341EA0341416083699B0604D5C369A2
:1010480043F02003C36130BD8369590744BF436A35
:1010580002F8013BF0E700BF0080007CF0B5274BA9
:1010680085B001244FF4A0728DF80B4004279A62D2
:101078004FF480629A620D469F610023ADB21A4612
:101088000646FFF75BFF03AA2946009402238DF862
:101098000C408DF80D70FFF733FF002303AA294693
:1010A8008DF80C30009402238DF80D40FFF728FFCF
:1010B8001420FFF70BFF234603AA29463046009465
:1010C800FFF71EFF23460DF10B0229463046009418
:1010D800FFF7A6FF9DF80B30009403F0EF038DF89F
:1010E8000B308DF80D3003AA022329463046FFF74E
:1010F80007FF1420FFF7EAFE05B0F0BD000800481E
:10110800F0B585B00646002710460C468DF80B70E2
:10111800FFF7A8F902460B4631A1D1E90001FFF714
:1011280031FBFFF717FC0125A4B207EE100A2B4686
:1011380003AA214630460095F7EE007A77EE677AE3
:101148008DF80C708DF80D70FFF7DAFE2B460DF157
:101158000B02214630460095FFF762FF9DF80B30E1
:10116800009503F06F0343F010038DF80D3003AAC8
:10117800214630460223FFF7C3FEB6EE007A77EE2B
:10118800877AFE23FDEEE77A8DF80C3017EE903A59
:1011980003AA8DF80D302146304600950223FFF74B
:1011A800AFFE9DF80B308DF80D3003AA21460223BF
:1011B800304600958DF80C70FFF7A2FE1420FFF75B
:1011C80085FE9DF80B30009563F07F038DF80D3098
:1011D80003AA022321463046FFF792FE05B0F0BD70
:1011E8000000000084D7B740054B5A6902435A6192
:1011F8005B6982B018400190019B02B0704700BF44
:10120800001002402DE9F0478AB01822002104A8F6
:1012180000F08EFA00244FF4002001940294039405
:10122800FFF7E2FF4FF48000FFF7DEFF4FF40030D6
:10123800FFF7DAFF364D4FF480204FF09046FFF766
:10124800D3FF40F244594FF020083249C5F828909E
:10125800C6F828804A69F02393FAA3F30227B3FA61
:1012680083F322F0F00207FA03F313434B61E868B3
:101278004FF4005292FAA2F3B3FA83F303215B000E
:1012880001FA03F320EA030392FAA2F0EB6028685C
:1012980092FAA2F3B3FA83F35B0001FA03F320EAAC
:1012A800030392FAA2F14FF0010A2B6001A8019200
:1012B80002948DF80CA08DF80D408DF80E70FFF794
:1012C80099FB04A92846CDF81090CDF814A00694EF
:1012D80007940894FFF72AFC04A93046CDF810803B
:1012E800CDF814A0069407940894FFF71FFC4FF458
:1012F8008053049304A90D23304605970694079458
:1013080008940993FFF712FC0AB0BDE8F08700BF04
:10131800000800480000014010B590B0294C1C227C
:10132800002109A800F004FA1822002103A800F0FF
:10133800FFF96369244843F480236361636903F414
:1013480080230293029B4FF4407303930223049378
:101358000323059301230693079303A90423089302
:10136800FFF7E4FBE369194A43F40013E361E36917
:10137800A4F5DE3403F400130193019B636843F082
:1013880000736360E36823F40043E360236823F495
:1013980000232360236823F40033236009A9002372
:1013A800204609930B930C930D930E930F930A9277
:1013B800FFF75EFCE36823F4FF6323F00603E360B2
:1013C80010B010BD00100240000400480E090020B3
:1013D800284A136823F0070310B543F00203264C8C
:1013E80013601368236843F00103236023689A0796
:1013F800FCD5236823F0F80343F080032360636877
:1014080023F4741343F460136360E36A23F00F0357
:10141800E362236843F08073236023689B01FCD553
:10142800636823F0F0036360636823F4E06343F4C4
:1014380080636360636823F460536360636823F0C8
:10144800030343F002036360636803F00C03082B93
:10145800FAD10A48FFF72CFD094A0848136843F0F7
:1014680004031360FFF746FD236B23F01003236387
:1014780010BD00BF00200240001002400090D003C1
:1014880010E000E07FB5354B35499A69354E42F09A
:1014980001029A619A6902F001020392039ADA69D9
:1014A80042F08052DA61DB6903F080530293029BB9
:1014B800CA682D4B22F4E0621204120C1343CB606D
:1014C800FFF786FFFFF79EFE00F08EF8FFF724FF78
:1014D80080212448FFF7C2FDC82280212148FFF758
:1014E8000FFE40F6FF75002300951A4680211D481F
:1014F800FFF758FD40F6FF7400231A460094802138
:101508003046FFF74FFD2B1B9BB2009302220023AE
:1015180080213046103CFFF745FDA4B20120FFF7BB
:10152800D5FC0F2CE8D1002400231A460094802112
:101538003046FFF737FD2B1B9BB200930222002396
:10154800802130461034FFF72DFDA4B20120FFF7AB
:10155800BDFCB4F57F6FE7D1CCE700BF00100240B7
:1015680000ED00E0005400400007FA057047FEE770
:10157800FEE7FEE7FEE770477047704770470000D8
:101588001549D1F8883043F47003C1F88830134BFB
:101598001A6842F001021A605868114A02405A60FB
:1015A8001A6822F0847222F480321A601A6822F4CF
:1015B80080221A605A6822F4FE025A60DA6A22F01F
:1015C8000F02DA62186B074A02401A6300229A6017
:1015D8004FF000638B60704700ED00E000100240A0
:1015E8000CC07FF8CCFC00FF10B590B01C22002185
:1015F80009A800F09DF81822002103A800F098F827
:10160800224BDA6942F40032DA61DA6902F4003214
:101618000292029A5A6942F400325A615B6903F4F1
:1016280000330193019B02230C24049303230DEB45
:10163800040105934FF09040072303940893FFF7A4
:1016480075FA0D94124C4FF41643099309A9002317
:1016580020460A930B930C930E930F93FFF7CEFB40
:10166800A36823F48063A360A36843F48053A36052
:10167800636823F490436360A36823F02A03A3609C
:10168800236843F00103236010B010BD001002402E
:1016980000440040DFF834D0002103E00C4B5B58D5
:1016A800435004310B480C4B42189A42F6D30B4A6C
:1016B80002E0002342F8043B094B9A42F9D3FFF7B2
:1016C8005FFF00F011F8FFF7DDFEFEE700300020B5
:1016D80080170008000000200400002004000020FB
:1016E80020000020FEE7000070B50D4E0D4CA41B35
:1016F800A4100025A54209D10B4E0C4C00F020F88F
:10170800A41BA4100025A54205D170BD56F82530AC
:1017180098470135EEE756F8253098470135F2E746
:101728007817000878170008781700087C17000851
:1017380002440346934200D1704703F8011BF9E7BE
:10174800F8B500BFF8BC08BC9E467047F8B500BFA6
:08175800F8BC08BC9E46704776
:101760000000000000000000010203040607080951
:08177000000000000102030467
:04177800AD010008B7
:04177C0089010008D7
:0417800000127A00D9
:040000050800169D3C
:00000001FF
